:100000000C9463000C948B000C948B000C948B006C
:100010000C948B000C948B000C948B000C94C005FA
:100020000C948B000C948B000C948B000C948B0024
:100030000C948B000C948B000C948B000C948B0014
:100040000C9476050C948B000C9468060C94420674
:100050000C948B000C948B000C948B000C948B00F4
:100060000C948B000C948B000000000023002600F1
:10007000290000000000240027002A0000000008DA
:10008000000201000003040700000000000000005F
:10009000010204081020408001020408102001021F
:1000A0000408102000000000250028002B00040494
:1000B0000404040404040202020202020303030310
:1000C000030302009A0611241FBECFEFD8E0DEBF63
:1000D000CDBF11E0A0E0B1E0ECE4F1E102C0059099
:1000E0000D92A036B107D9F722E0A0E6B1E001C039
:1000F0001D92A133B207E1F710E0C3E6D0E004C0DF
:100100002197FE010E949E08C236D107C9F70E94BE
:10011000E4060C94A4080C940000833081F028F4C9
:10012000813099F08230A9F008958730A9F08830A5
:10013000C9F08430B1F4809180008F7D03C080913C
:1001400080008F7780938000089584B58F7784BD79
:10015000089584B58F7DFBCF8091B0008F77809319
:10016000B00008958091B0008F7DF9CF1F93CF9399
:10017000DF93282F30E0F901E458FF4F8491F90113
:10018000E057FF4FD491F901E255FF4FC491CC23C2
:10019000A9F0162F81110E948D00EC2FF0E0EE0FD8
:1001A000FF1FEC55FF4FA591B4918FB7F894EC91D8
:1001B000111108C0D095DE23DC938FBFDF91CF9162
:1001C0001F910895DE2BF8CFCF93DF9390E0FC01D1
:1001D000E057FF4F249182559F4FFC018491882363
:1001E000D1F090E0880F991FFC01EE58FF4FA591C8
:1001F000B491FC01EC55FF4FC591D49161110EC033
:100200009FB7F8948C91E22FE0958E238C932881F0
:10021000E223E8839FBFDF91CF9108958FB7F894D1
:10022000EC91E22BEC938FBFF6CFCF93909100012E
:10023000891721F09F3F59F1CF910895E2ECF0E04A
:10024000C491C7FDF9CF61E00E94E400CC2309F41A
:1002500096C0C23009F0ABC08091B100887F836046
:100260008093B10082EE8093B30080E391E1A0E03F
:10027000B0E08093700190937101A0937201B093EC
:10028000730180917000826080937000D5CF80935D
:100290000001E2ECF0E0C491CF3F71F2C13039F1DE
:1002A00048F0C23009F445C0C7FDC6CF61E00E94E6
:1002B000E400CFCF14BC15BC94B5926094BD95B545
:1002C000916095BD282F30E0F901E255FF4FE49190
:1002D000F0E0EE0FFF1FEC55FF4F45915491F901EF
:1002E000E057FF4FE491E0936F01C0E0ACCF109274
:1002F000800010928100909181009860909381001D
:1003000090918100916090938100282F30E0F90155
:10031000E255FF4FE491F0E0EE0FFF1FEC55FF4F69
:1003200045915491F901E057FF4FE491E0936E013C
:100330008ACF1092B0001092B1009091B0009260FC
:100340009093B0009091B10091609093B100282FEC
:1003500030E0F901E255FF4FE491F0E0EE0FFF1FAE
:10036000EC55FF4F4591549150936D0140936C01B2
:10037000F901E057FF4FE491E0936B0164CF85B53D
:10038000887F836085BD80E787BD80E391E1A0E041
:10039000B0E08093780190937901A0937A01B093B3
:1003A0007B0180916E00826080936E0045CFC130EA
:1003B000F1F480918100887F81608093810087E6DD
:1003C0009CE1909389008093880080E391E1A0E014
:1003D000B0E08093740190937501A0937601B0937F
:1003E000770180916F00826080936F0025CFC230CB
:1003F00021F0C11121CF87E6C7CF87E634CF8E30F9
:1004000008F08E508770806480937C0080917A0021
:10041000806480937A0080917A0086FDFCCF809181
:1004200078009091790008953FB7F8948091670122
:1004300090916801A0916901B0916A0126B5A89BCD
:1004400005C02F3F19F00196A11DB11D3FBFBA2F66
:10045000A92F982F8827BC01CD01620F711D811D26
:10046000911D42E0660F771F881F991F4A95D1F7AB
:1004700008958F929F92AF92BF92CF92DF92EF92A8
:10048000FF920E9414024B015C0188EEC82E83E0AB
:10049000D82EE12CF12C0E941402681979098A09DE
:1004A0009B09683E734081059105A8F321E0C21ABB
:1004B000D108E108F10888EE880E83E0981EA11C9F
:1004C000B11CC114D104E104F10429F7FF90EF90AD
:1004D000DF90CF90BF90AF909F908F900895AF9294
:1004E000BF92CF92DF92EF92FF920F931F93CF9321
:1004F000DF936C017B018B01040F151FEB015E0183
:10050000AE18BF08C017D10759F06991D601ED9117
:10051000FC910190F081E02DC6010995892B79F7B6
:10052000C501DF91CF911F910F91FF90EF90DF9068
:10053000CF90BF90AF900895FC01538D448D252F2F
:1005400030E0842F90E0821B930B541710F0CF966D
:10055000089501970895FC01918D828D981761F09F
:10056000A28DAE0FBF2FB11D5D968C91928D9F5FB6
:100570009F73928F90E008958FEF9FEF0895FC0195
:10058000918D828D981731F0828DE80FF11D858D48
:1005900090E008958FEF9FEF0895FC01918D228DDB
:1005A000892F90E0805C9F4F821B91098F73992760
:1005B00008958CE791E00E94CD0221E0892B09F497
:1005C00020E0822F089580E090E0892B29F00E949E
:1005D000D90281110C9400000895FC01A48DA80F8C
:1005E000B92FB11DA35ABF4F2C91848D90E0019675
:1005F0008F739927848FA689B7892C93A089B18995
:100600008C91837080648C93938D848D981306C035
:100610000288F389E02D80818F7D80830895EF9299
:10062000FF920F931F93CF93DF93EC0181E0888FAC
:100630009B8D8C8D98131AC0E889F989808185FF7C
:1006400015C09FB7F894EE89FF896083E889F9891E
:1006500080818370806480839FBF81E090E0DF9120
:10066000CF911F910F91FF90EF900895F62E0B8D73
:1006700010E00F5F1F4F0F731127E02E8C8D8E112E
:100680000CC00FB607FCFACFE889F989808185FF95
:10069000F5CFCE010E94ED02F1CFEB8DEC0FFD2FD7
:1006A000F11DE35AFF4FF0829FB7F8940B8FEA8950
:1006B000FB8980818062CFCFCF93DF93EC01888D5F
:1006C0008823B9F0AA89BB89E889F9898C9185FDCD
:1006D00003C0808186FD0DC00FB607FCF7CF8C915B
:1006E00085FFF2CF808185FFEDCFCE010E94ED0224
:1006F000E9CFDF91CF910895089590E080E00895CB
:10070000CF93DF93EC0160E08E810E94B60061E040
:100710008E810E94B60060E08E810E94B6008BE858
:1007200091E00197F1F7DF91CF910895CF92DF9299
:10073000EF92FF920F931F93CF93DF936C017C0195
:1007400087E0E80EF11CD0E0C0E0062F10E0B80111
:100750000C2E02C0759567950A94E2F76170F70157
:1007600081917F010E94B6002196C430D10579F7AE
:10077000C601DF91CF911F910F91FF90EF90DF9015
:10078000CF900C948003CF92DF92EF92FF920F9361
:100790001F93CF93DF93EC01F62E642F8C810E9480
:1007A000B6008D818F3F19F060E00E94B6000F2DDA
:1007B00010E08F8584FF25C06E0187E0C80ED11C34
:1007C000F12CE12CB8010E2C02C0759567950A94A6
:1007D000E2F76170F60181916F010E94B600FFEFB0
:1007E000EF1AFF0A88E0E816F10461F7CE01DF9105
:1007F000CF911F910F91FF90EF90DF90CF900C94CD
:100800008003B80184E0759567958A95E1F7CE017C
:100810000E9496036F2DCE01DF91CF911F910F9112
:10082000FF90EF90DF90CF900C94960340E0682FFC
:1008300089E192E00C94C30381E00E9416048BE3EB
:100840009FE10197F1F70895CF93DF93823029F468
:100850009091280298609093280280932C02109225
:100860002D0280E480932E0280E180932F0280E5A8
:100870008093300261E080911D020E94E40080912B
:100880001E028F3F19F061E00E94E40061E0809158
:100890001F020E94E400C9E1D2E09E0129513240CA
:1008A0008091280284FD0BC084E090E021962817F7
:1008B000390744F461E08E810E94E400EECF88E0C5
:1008C00090E0F4CF8BE39DE00197F1F760E0809139
:1008D0001D020E94B60060E080911F020E94B600D7
:1008E00080911E028F3F19F060E00E94B600809157
:1008F000280284FD34C063E089E192E00E949603FF
:10090000CBE4D6E4CE010197F1F763E089E192E010
:100910000E9496032197F1F763E089E192E00E943B
:10092000960383E592E00197F1F762E089E192E0B6
:100930000E9496038091280280620E94160484E03F
:10094000809329028CE00E9416040E941C0482E01D
:1009500080932A0286E0DF91CF910C941604806286
:100960000E9416048BE496E40197F1F78091280227
:1009700080620E94160483E592E00197F1F780916E
:10098000280280620E941604D5CF90912C0269172C
:1009900010F06FEF690FE62FF0E0E75EFD4F9489EE
:1009A000890F80680C94160441E00E94C30381E023
:1009B00090E00895FB0101900020E9F73197AF0125
:1009C000461B570BDC01ED91FC910280F381E02D79
:1009D00009944F925F926F927F928F929F92AF9203
:1009E000BF92CF92DF92EF92FF920F931F93CF931C
:1009F000DF93CDB7DEB7A1970FB6F894DEBF0FBE79
:100A0000CDBF8C016B01770FEE08FF08F7FE49C0E0
:100A1000DC01ED91FC910190F081E02D6DE20995F2
:100A20005C0122273327A9012C193D094E095F09D2
:100A300019A2FE01B1967F019AE0492E512C612C3A
:100A4000712CCA01B901A30192010E947C08605D6A
:100A5000D7016E937D01211531054105510589F7B7
:100A600090E080E0109721F0BD01C8010E94DA04F7
:100A70008A0D9B1DA1960FB6F894DEBF0FBECDBFA9
:100A8000DF91CF911F910F91FF90EF90DF90CF906A
:100A9000BF90AF909F908F907F906F905F904F909E
:100AA0000895A701960119A2FE01B1967F018AE07F
:100AB000882E912CA12CB12CCA01B901A501940159
:100AC0000E947C08605DD7016E937D012115310580
:100AD0004105510589F790E080E0109759F2BD017A
:100AE000C8010E94DA04C6CF0C94DA041F920F9258
:100AF0000FB60F9211242F933F938F939F93AF9331
:100B0000BF938091630190916401A0916501B091C0
:100B100066013091620123E0230F2D3758F50196CD
:100B2000A11DB11D20936201809363019093640124
:100B3000A0936501B093660180916701909168016F
:100B4000A0916901B0916A010196A11DB11D809328
:100B5000670190936801A0936901B0936A01BF9106
:100B6000AF919F918F913F912F910F900FBE0F905A
:100B70001F90189526E8230F0296A11DB11DD2CF14
:100B80001F920F920FB60F9211242F933F934F9302
:100B90005F936F937F938F939F93AF93BF93EF93E5
:100BA000FF938091700190917101A0917201B091B9
:100BB0007301892B8A2B8B2BD1F190916B01E091E2
:100BC0006C01F0916D018081892780838091700193
:100BD00090917101A0917201B091730118161906DC
:100BE0001A061B069CF48091700190917101A091EE
:100BF0007201B09173010197A109B109809370014D
:100C000090937101A0937201B0937301FF91EF91E2
:100C1000BF91AF919F918F917F916F915F914F9114
:100C20003F912F910F900FBE0F901F9018958091BC
:100C30000001E2ECF0E0E4919FEF90930001E130DD
:100C400051F030F0E23069F060E00E94B600DECF93
:100C500010926E00F9CF90916F009D7F90936F007E
:100C6000F3CF909170009D7F9093700091E09093EE
:100C7000B0009091B100987F94609093B100109271
:100C8000B300E2CF1F920F920FB60F9211242F9351
:100C90003F934F935F936F937F938F939F93AF9304
:100CA000BF93EF93FF938CE791E00E94ED02FF91D9
:100CB000EF91BF91AF919F918F917F916F915F91D4
:100CC0004F913F912F910F900FBE0F901F9018954D
:100CD0001F920F920FB60F9211242F938F939F9311
:100CE000EF93FF93E0918C01F0918D018081E09171
:100CF0009201F091930182FD1BC09081809195013A
:100D00008F5F8F7320919601821741F0E0919501DA
:100D1000F0E0E458FE4F958F80939501FF91EF919D
:100D20009F918F912F910F900FBE0F901F9018954C
:100D30008081F4CFECE7F1E01382128288EE93E039
:100D4000A0E0B0E084839583A683B78385E091E03B
:100D50009183808385EC90E09587848784EC90E094
:100D60009787868780EC90E0918B808B81EC90E078
:100D7000938B828B82EC90E0958B848B86EC90E059
:100D8000978B868B118E128E138E148EE9E1F2E012
:100D90001382128287E191E0918380838CE08483C7
:100DA0008FEF85838BE0868385E0878384E080876F
:100DB00083E0818782E082871386148615861686F3
:100DC000178681E00C942404789484B5826084BDF5
:100DD00084B5816084BD85B5826085BD85B581603F
:100DE00085BD80916E00816080936E0010928100BD
:100DF0008091810082608093810080918100816078
:100E00008093810080918000816080938000809138
:100E1000B10084608093B1008091B00081608093C4
:100E2000B00080917A00846080937A0080917A008B
:100E3000826080937A0080917A00816080937A004A
:100E400080917A00806880937A001092C10082E0DD
:100E50000E9424040E941C0461E08DE00E94E400D2
:100E600060E087E00E94E40061E089E00E94E40025
:100E700060E080E00E94C5046FE171E089E192E0EA
:100E80000E94740561E080E00E94C50467E271E0A1
:100E900089E192E00E9474050E943902E0918C0180
:100EA000F0918D0182E08083E0918801F0918901C9
:100EB0001082E0918A01F0918B018FEC8083109277
:100EC0009401E0919001F091910186E08083E0919E
:100ED0008E01F0918F01808180618083E0918E018D
:100EE000F0918F01808188608083E0918E01F09184
:100EF0008F01808180688083E0918E01F0918F0165
:100F000080818F7D808333E8E32E30E0F32E47E944
:100F1000C42E40E0D42E55EBA52E50E0B52E00E0B7
:100F200010E00E941C048EE00E94FF01EC0181E1B0
:100F30000E94FF0197FD01969595879501979093E3
:100F400061018093600160E080E00E94C5046EE270
:100F500071E089E192E00E94740560E085E00E9402
:100F6000C504609160017091610189E192E00E9485
:100F7000E90460E087E00E94C50464E371E089E170
:100F800092E00E947405CD3B22E0D2070CF43AC0F7
:100F900060E08BE00E94C50467E371E089E192E0C4
:100FA0000E94740561E08BE00E94C5046BE371E070
:100FB00089E192E00E947405F7018491F601949012
:100FC000F5018490882009F46DC081110E948D0084
:100FD000E82DF0E0EE0FFF1FE859FF4FA591B49107
:100FE0008C91982209F45EC061E08DE00E94B60009
:100FF00061E080E00E94C50460E471E089E192E074
:101000000E947405CE018C5291408139914008F0C4
:1010100067C060E08BE00E94C50461E571E089E192
:1010200092E00E94740561E08BE00E94C5046BE3CE
:1010300071E089E192E00E94740560E08DE00E9419
:10104000B60061E080E00E94C50468E471E089E1D7
:1010500092E00E94740560916001709161018CE7DB
:1010600091E00E94E9046BE571E08CE791E00E9459
:101070007405BE018CE791E00E94E9046DE571E022
:101080008CE791E00E94DA040E94390201151105F3
:1010900009F447CF0E94D902882309F442CF0E9465
:1010A00000003FCF60E08DE00E94B60061E080E08C
:1010B0000E94C50468E471E089E192E00E94740531
:1010C00089E00E9415010E94390289E00E94150101
:1010D0000E94390289E00E9415010E94390292CFD4
:1010E000CC3221E0D2070CF0B6CF60E08BE00E945A
:1010F000C50467E571E093CFA1E21A2EAA1BBB1BC2
:10110000FD010DC0AA1FBB1FEE1FFF1FA217B307D3
:10111000E407F50720F0A21BB30BE40BF50B661FE9
:10112000771F881F991F1A9469F7609570958095AD
:1011300090959B01AC01BD01CF010895EE0FFF1FFB
:0C1140000590F491E02D0994F894FFCF85
:10114C00FF000000000F036F029C025C03CD02AB9A
:10115C0002BF0200000000D4046F027D037C034D2B
:10116C00414445204259004E4F424F44590054458A
:10117C004D503A0027430044525900534F494C00FC
:10118C0050554D503A4F4E0050554D503A4F4646E3
:10119C00004D4F495354005745540078000D0A0038
:00000001FF
